:100917004B49454D2054524120534F4E4700706C70
:1009270065736520776169742E2E2E210044414E30
:100937004720444F43204D412E2E2E00504841540E
:0F094700204849454E204D41005048494D200061
:100A2400011200011D000208000003161EC52D035B
:0C0A3400130080C002230000021000002C
:0808C4007F017E007D007C0035
:1008CC008F2D8E2C8D2B8C2A538EEF758912D28EF8
:1008DC00E4FFFEFDFCAB2DAA2CA92BA82AC3120702
:1008EC00506025758BF3758DFF308FFDC28FE52D14
:1008FC0024FFF52DE52C34FFF52CE52B34FFF52BDF
:0B090C00E52A34FFF52A80C8C28E22C5
:1009E400E4FDFCC3ED9FEC9E5015E4FBFA0BBB0049
:0F09F400010AEB647D4A70F50DBD00010C80E433
:010A030022D0
:100A0400E4FDFCC3ED9FEC9E5015E4FBFA0BBB0028
:0F0A1400010AEB64024A70F50DBD00010C80E48D
:010A230022B0
:10082000752500752605900000E5261526AE257075
:100830000215254E607BE4F523F5243085FD3085D7
:100840001CC3E52494E8E523940350110524E52412
:10085000700205237F017E00120A0480E1E4F51096
:10086000F51120851CC3E51194E8E510940350119F
:100870000511E511700205107F017E00120A048047
:10088000E1D3E5249496E5239400409DE52494E883
:10089000E52394035093E5119496E5109400408964
:1008A000E51194E8E51094034003020829A3020827
:1008B00029D3E5829403E5836480948040037F001C
:0308C000227F0193
:0108C3002212
:1004AA00E4900000F0A3F0F508F5093085FD3085E9
:1004BA0018C3E5099441E5089400500D1208C405D3
:1004CA0009E50970E9050880E5E4900000F0A3F069
:1004DA002085131208C4900001E004F070F2900025
:1004EA0000E004F080EAC3E509942DE50894005081
:1004FA0003020668D3E5099441E508940040030223
:10050A000668900000E0FEA3E0FFC394F4EE9401B5
:10051A005003020668D3EF9458EE94024003020691
:10052A0068E4F527E4F525E4F526E4F528F529300D
:10053A008518C3E52994B8E528940B500D1208C410
:10054A000529E52970E9052880E5E52925E0FFE583
:10055A002833FEC3E5099FE5089E5036E528C313F4
:10056A00FEE52913FFD3E5099FE5089E4024E52708
:10057A0075F003A4240A2525F8C000E6FFC3740712
:10058A009526FE7401A806088002C333D8FCF45FDE
:10059A008043E508C313FEE50913FFD3E5299FE568
:1005AA00289E4003020668E5299400E52894005035
:1005BA0003020668E52775F003A4240A2525F8C076
:1005CA0000E6FFC374079526FE7401A80608800298
:1005DA00C333D8FC4FD000F63085FD0526E526C387
:1005EA00940850030205340525E525C394035003F6
:1005FA000205313085051208C480F8E4900000F045
:10060A00A3F02085131208C4900001E004F070F2F0
:10061A00900000E004F080EA900000E0FEA3E0FF12
:10062A00C394F4EE94014036D3EF9458EE940250FA
:10063A002D0527E527C39402500302052EE50AB4C7
:10064A00FF0AE50BB4FF05E50CF46012E50AB50DE7
:0E065A000DE50BB50E08E50CB50F037512018A
:01066800226F
:030A9000120A4106
:100A9300D2927F037E00120A04C2927F05020A04E7
:100A4100EF139291EFC313139290EF1313543F13CB
:0C0A51009280EF131313541F13928122A4
:100A7700A9077F207E03120A04E9C4540FFF120A54
:090A870090AF01120A41020A932A
:10095600E4FF120A417FC87E001209E4C294C293E2
:10096600C2927F03120A90120A93120A937F02120E
:100976000A41120A937F2C120A777F80120A777F28
:0E0986000C120A777F06120A777F01020A77A9
:07099400120AA3E4FD7F023B
:10099B00ED7007EF2480F5328005EF24C0F5327F30
:1009AB00037E001209E4AF32120A777F017E000248
:0209BB0009E44D
:0C0AA3007F01120A777F2C7E01020A04FA
:100A5D007F2D7E00120A6F7F2D7E00120A6F7F2D73
:020A6D007E0009
:080A6F00D294120A77C294220E
:1009BD008B258A268927AB25AA26A927120669FF2A
:1009CD0060143395E0FE120A6F74012527F527E4B4
:0709DD003526F52680E0221B
:080003008F288E278D268C2525
:10000B007B407A42790F78001206BE8F2B7B407AA9
:10001B0042790F7800AF28AE27AD26AC251206BE6D
:10002B00AC00AD01AE02AF037BA07A8679017800FC
:10003B001206BE8F2C7B407A42790F7800AF28AE28
:10004B0027AD26AC251206BEAC00AD01AE02AF0348
:10005B007BA07A86790178001206BEAC00AD01AEAA
:10006B0002AF03E47B107A27F9F81206BE8F2D7BC3
:10007B00407A42790F7800AF28AE27AD26AC251217
:10008B0006BEAC00AD01AE02AF037BA07A86790150
:10009B0078001206BEAC00AD01AE02AF03E47B10DC
:1000AB007A27F9F81206BEAC00AD01AE02AF03E43D
:1000BB007BE87A03F9F81206BE8F2E7B407A4279E1
:1000CB000F7800AF28AE27AD26AC251206BEAC00CC
:1000DB00AD01AE02AF037BA07A86790178001206E0
:1000EB00BEAC00AD01AE02AF03E47B107A27F9F88A
:1000FB001206BEAC00AD01AE02AF03E47BE87A039F
:10010B00F9F81206BEAC00AD01AE02AF03E47B649E
:10011B00FAF9F81206BE8F2F7B407A42790F7800DE
:10012B00AF28AE27AD26AC251206BEAC00AD01AE96
:10013B0002AF037BA07A86790178001206BEAC0071
:10014B00AD01AE02AF03E47B107A27F9F81206BEBD
:10015B00AC00AD01AE02AF03E47BE87A03F9F81211
:10016B0006BEAC00AD01AE02AF03E47B64FAF9F856
:10017B001206BEAC00AD01AE02AF03E47B0AFAF986
:10018B00F81206BE8F30E47B0AFAF9F8AF28AE27D7
:10019B00AD26AC251206BEAF038F31E4FFFEFDFC8E
:1001AB00AB28AA27A926A825C3120750701EE5293C
:1001BB0024FBFDAF2A12099B7F5B7E00120A6F1294
:1001CB000A5D120A5D7F2D7E000202B0E52924FB39
:1001DB00FDAF2A12099B7F5B7E00120A6F7F407E68
:1001EB00427D0F7C00AB28AA27A926A825D312078E
:1001FB0050400BE52B2430FFE433FE120A6F7FA037
:10020B007E867D017C00AB28AA27A926A825D312C0
:10021B000750400BE52C2430FFE433FE120A6FE449
:10022B007F107E27FDFCAB28AA27A926A825D31271
:10023B000750400BE52D2430FFE433FE120A6FE428
:10024B007FE87E03FDFCAB28AA27A926A825D3129D
:10025B000750400BE52E2430FFE433FE120A6FE407
:10026B007F64FEFDFCAB28AA27A926A825D312077D
:10027B0050400BE52F2430FFE433FE120A6FE47F6E
:10028B000AFEFDFCAB28AA27A926A825D3120750E6
:10029B00400BE5302430FFE433FE120A6FE53124C6
:0F02AB0030FFE433FE120A6F7F5D7E00120A6F90
:0102BA002221
:1002BB00759610759721E4F5B375B41F75B120755C
:1002CB00B243F5ACF5AD758912D2AFC2867F04FE91
:1002DB001209E41209561209947BFF7A0979171255
:1002EB0009BD7D017F0212099B7BFF7A09792512DB
:1002FB0009BD7F107E271209E41209947BFF7A094E
:10030B0079341209BD1204AAE512B401F8D286E4BD
:10031B00F521F522120820EF7003751D010522E56A
:10032B002270020521C39414E5216480948040E47B
:10033B001209977BFF7A0979431209BDD2867FE8B0
:10034B007E031209E4C2861209E4D2861209E4C2C2
:10035B0086E51D64016003020400F51CF51BF51A0C
:10036B00F519AF1CAE1BAD1AAC197808120761A8B2
:10037B0004A905AA06AB07E4FCFDFEEB250CF51C56
:10038B00EE3AF51BED39F51AEC38F519AF1CAE1B2F
:10039B00AD1AFC7808120761A804A905AA06AB07D9
:1003AB00E4FCFDFEEB250BF51CEE3AF51BED39F5E8
:1003BB001AEC38F519E51C2410F51CE51B3427F550
:1003CB001BE4351AF51AE43519F519AF1CAE1BAD44
:1003DB001AFC752902752A011200037D017F09128F
:1003EB00099B7BFF7A0979501209BDAF0A7E001277
:1003FB000A6F02049CE4F51CF51BF51AF519AF1CEA
:10040B00AE1BAD1AAC197808120761A804A905AA8E
:10041B0006AB07E4FCFDFEEB250CF51CEE3AF51BD9
:10042B00ED39F51AEC38F519AF1CAE1BAD1AFC788B
:10043B0008120761A804A905AA06AB07E4FCFDFE98
:10044B00EB250BF51CEE3AF51BED39F51AEC38F5EF
:10045B0019AF1CAE1BAD1AFC7808120761A804A9D2
:10046B0005AA06AB07E4FCFDFEEB250AF51CEE3AEC
:10047B00F51BED39F51AEC38F5190D7F0212099BB6
:10048B00AF1CAE1BAD1AAC19752902752A041200EC
:0F049B0003E4F50AF50BF50CF51DF5120203103D
:0300000002077480
:1007740075C7AA75C75575FD5A75C7AA75C7557546
:10078400FDA5787FE4F6D8FD9000007FFF7E03E4AA
:0C079400F0A3DFFCDEFA7581320207DB07
:1007A0000202BBE493A3F8E493A34003F68001F2B2
:1007B00008DFF48029E493A3F85407240CC8C3335A
:1007C000C4540F4420C8834004F456800146F6DF29
:1007D000E4800B0102040810204080900A24E47E8B
:1007E000019360BCA3FF543F30E509541FFEE4931E
:1007F000A360010ECF54C025E060A840B8E493A3E5
:10080000FAE493A3F8E493A3C8C582C8CAC583CA0F
:10081000F0A3C8C582C8CAC583CADFE9DEE780BEC7
:010A400000B5
:10066900BB010689828A83E0225002E722BBFE028F
:09067900E32289828A83E49322C2
:1006820075F008758200EF2FFFEE33FECD33CDCC2F
:1006920033CCC58233C5829BED9AEC99E5829840B2
:1006A2000CF582EE9BFEED9AFDEC99FC0FD5F0D68F
:1006B200E4CEFBE4CDFAE4CCF9A88222B800C1B9B9
:1006C2000059BA002DEC8BF084CFCECDFCE5F0CBF7
:1006D200F97818EF2FFFEE33FEED33FDEC33FCEB30
:1006E20033FB10D703994004EB99FB0FD8E5E4F9EB
:1006F200FA227818EF2FFFEE33FEED33FDEC33FCD8
:10070200C933C910D7059BE99A4007EC9BFCE99ACB
:10071200F90FD8E0E4C9FAE4CCFB2275F010EF2F10
:10072200FFEE33FEED33FDCC33CCC833C810D70710
:100732009BEC9AE899400AED9BFDEC9AFCE899F84B
:0E0742000FD5F0DAE4CDFBE4CCFAE4C8F922DE
:10075000EB9FF5F0EA9E42F0E99D42F0E89C45F0FF
:010760002276
:10076100E8600FEFC333FFEE33FEED33FDEC33FCF6
:03077100D8F1229A
:00000001FF
